{
  "_format": "hh-sol-artifact-1",
  "contractName": "VenmoOTCMultisig",
  "sourceName": "src/VenmoOTCMultisig.sol",
  "abi": [
    {
      "inputs": [
        {
          "internalType": "address",
          "name": "_usdtToken",
          "type": "address"
        }
      ],
      "stateMutability": "nonpayable",
      "type": "constructor"
    },
    {
      "anonymous": false,
      "inputs": [
        {
          "indexed": true,
          "internalType": "uint256",
          "name": "orderId",
          "type": "uint256"
        },
        {
          "indexed": true,
          "internalType": "address",
          "name": "signer",
          "type": "address"
        },
        {
          "indexed": false,
          "internalType": "enum VenmoOTCMultisig.Choice",
          "name": "newChoice",
          "type": "uint8"
        }
      ],
      "name": "ChoiceUpdated",
      "type": "event"
    },
    {
      "anonymous": false,
      "inputs": [
        {
          "indexed": true,
          "internalType": "uint256",
          "name": "orderId",
          "type": "uint256"
        },
        {
          "indexed": true,
          "internalType": "address",
          "name": "initiator",
          "type": "address"
        },
        {
          "indexed": true,
          "internalType": "address",
          "name": "counterparty",
          "type": "address"
        },
        {
          "indexed": false,
          "internalType": "uint256",
          "name": "amount",
          "type": "uint256"
        }
      ],
      "name": "OrderCreated",
      "type": "event"
    },
    {
      "anonymous": false,
      "inputs": [
        {
          "indexed": true,
          "internalType": "uint256",
          "name": "orderId",
          "type": "uint256"
        },
        {
          "indexed": true,
          "internalType": "address",
          "name": "recipient",
          "type": "address"
        },
        {
          "indexed": false,
          "internalType": "uint256",
          "name": "amount",
          "type": "uint256"
        }
      ],
      "name": "OrderExecuted",
      "type": "event"
    },
    {
      "anonymous": false,
      "inputs": [
        {
          "indexed": true,
          "internalType": "uint256",
          "name": "orderId",
          "type": "uint256"
        },
        {
          "indexed": true,
          "internalType": "address",
          "name": "signer",
          "type": "address"
        },
        {
          "indexed": false,
          "internalType": "enum VenmoOTCMultisig.Choice",
          "name": "choice",
          "type": "uint8"
        }
      ],
      "name": "OrderSigned",
      "type": "event"
    },
    {
      "inputs": [
        {
          "internalType": "address",
          "name": "_counterparty",
          "type": "address"
        },
        {
          "internalType": "uint256",
          "name": "_amount",
          "type": "uint256"
        }
      ],
      "name": "createOrder",
      "outputs": [
        {
          "internalType": "uint256",
          "name": "",
          "type": "uint256"
        }
      ],
      "stateMutability": "nonpayable",
      "type": "function"
    },
    {
      "inputs": [
        {
          "internalType": "uint256",
          "name": "_orderId",
          "type": "uint256"
        }
      ],
      "name": "getOrder",
      "outputs": [
        {
          "internalType": "address",
          "name": "initiator",
          "type": "address"
        },
        {
          "internalType": "address",
          "name": "counterparty",
          "type": "address"
        },
        {
          "internalType": "uint256",
          "name": "amount",
          "type": "uint256"
        },
        {
          "internalType": "enum VenmoOTCMultisig.Choice",
          "name": "initiatorChoice",
          "type": "uint8"
        },
        {
          "internalType": "enum VenmoOTCMultisig.Choice",
          "name": "counterpartyChoice",
          "type": "uint8"
        },
        {
          "internalType": "enum VenmoOTCMultisig.OrderStatus",
          "name": "status",
          "type": "uint8"
        },
        {
          "internalType": "bool",
          "name": "initiatorSigned",
          "type": "bool"
        },
        {
          "internalType": "bool",
          "name": "counterpartySigned",
          "type": "bool"
        }
      ],
      "stateMutability": "view",
      "type": "function"
    },
    {
      "inputs": [],
      "name": "nextOrderId",
      "outputs": [
        {
          "internalType": "uint256",
          "name": "",
          "type": "uint256"
        }
      ],
      "stateMutability": "view",
      "type": "function"
    },
    {
      "inputs": [
        {
          "internalType": "uint256",
          "name": "",
          "type": "uint256"
        }
      ],
      "name": "orders",
      "outputs": [
        {
          "internalType": "address",
          "name": "initiator",
          "type": "address"
        },
        {
          "internalType": "address",
          "name": "counterparty",
          "type": "address"
        },
        {
          "internalType": "uint256",
          "name": "amount",
          "type": "uint256"
        },
        {
          "internalType": "enum VenmoOTCMultisig.Choice",
          "name": "initiatorChoice",
          "type": "uint8"
        },
        {
          "internalType": "enum VenmoOTCMultisig.Choice",
          "name": "counterpartyChoice",
          "type": "uint8"
        },
        {
          "internalType": "enum VenmoOTCMultisig.OrderStatus",
          "name": "status",
          "type": "uint8"
        },
        {
          "internalType": "bool",
          "name": "initiatorSigned",
          "type": "bool"
        },
        {
          "internalType": "bool",
          "name": "counterpartySigned",
          "type": "bool"
        }
      ],
      "stateMutability": "view",
      "type": "function"
    },
    {
      "inputs": [
        {
          "internalType": "uint256",
          "name": "_orderId",
          "type": "uint256"
        },
        {
          "internalType": "enum VenmoOTCMultisig.Choice",
          "name": "_choice",
          "type": "uint8"
        }
      ],
      "name": "signOrder",
      "outputs": [],
      "stateMutability": "nonpayable",
      "type": "function"
    },
    {
      "inputs": [
        {
          "internalType": "uint256",
          "name": "_orderId",
          "type": "uint256"
        },
        {
          "internalType": "enum VenmoOTCMultisig.Choice",
          "name": "_newChoice",
          "type": "uint8"
        }
      ],
      "name": "updateChoice",
      "outputs": [],
      "stateMutability": "nonpayable",
      "type": "function"
    },
    {
      "inputs": [],
      "name": "usdtToken",
      "outputs": [
        {
          "internalType": "contract IERC20",
          "name": "",
          "type": "address"
        }
      ],
      "stateMutability": "view",
      "type": "function"
    }
  ],
  "bytecode": "0x60806040523480156200001157600080fd5b5060405162001b8838038062001b888339818101604052810190620000379190620000e8565b806000806101000a81548173ffffffffffffffffffffffffffffffffffffffff021916908373ffffffffffffffffffffffffffffffffffffffff160217905550506200011a565b600080fd5b600073ffffffffffffffffffffffffffffffffffffffff82169050919050565b6000620000b08262000083565b9050919050565b620000c281620000a3565b8114620000ce57600080fd5b50565b600081519050620000e281620000b7565b92915050565b6000602082840312156200010157620001006200007e565b5b60006200011184828501620000d1565b91505092915050565b611a5e806200012a6000396000f3fe608060405234801561001057600080fd5b506004361061007d5760003560e01c80636c16b5451161005b5780636c16b545146100d8578063a85c38ef14610108578063a98ad46c1461013f578063d09ef2411461015d5761007d565b806312a8877f146100825780632a58b3301461009e578063520d9e0d146100bc575b600080fd5b61009c6004803603810190610097919061117e565b610194565b005b6100a6610568565b6040516100b391906111cd565b60405180910390f35b6100d660048036038101906100d1919061117e565b61056e565b005b6100f260048036038101906100ed9190611246565b6108da565b6040516100ff91906111cd565b60405180910390f35b610122600480360381019061011d9190611286565b610c39565b60405161013698979695949392919061139c565b60405180910390f35b610147610d02565b6040516101549190611479565b60405180910390f35b61017760048036038101906101729190611286565b610d26565b60405161018b98979695949392919061139c565b60405180910390f35b6000600260008481526020019081526020016000209050600060028111156101bf576101be6112c2565b5b8160030160029054906101000a900460ff1660028111156101e3576101e26112c2565b5b14610223576040517f08c379a000000000000000000000000000000000000000000000000000000000815260040161021a906114f1565b60405180910390fd5b60006002811115610237576102366112c2565b5b82600281111561024a576102496112c2565b5b0361028a576040517f08c379a00000000000000000000000000000000000000000000000000000000081526004016102819061155d565b60405180910390fd5b60008160000160009054906101000a900473ffffffffffffffffffffffffffffffffffffffff1673ffffffffffffffffffffffffffffffffffffffff163373ffffffffffffffffffffffffffffffffffffffff1614905060008260010160009054906101000a900473ffffffffffffffffffffffffffffffffffffffff1673ffffffffffffffffffffffffffffffffffffffff163373ffffffffffffffffffffffffffffffffffffffff1614905081806103415750805b610380576040517f08c379a0000000000000000000000000000000000000000000000000000000008152600401610377906115c9565b60405180910390fd5b8115610408578260030160039054906101000a900460ff166103d7576040517f08c379a00000000000000000000000000000000000000000000000000000000081526004016103ce90611635565b60405180910390fd5b838360030160006101000a81548160ff021916908360028111156103fe576103fd6112c2565b5b0217905550610486565b8260030160049054906101000a900460ff16610459576040517f08c379a000000000000000000000000000000000000000000000000000000000815260040161045090611635565b60405180910390fd5b838360030160016101000a81548160ff021916908360028111156104805761047f6112c2565b5b02179055505b3373ffffffffffffffffffffffffffffffffffffffff16857f087795d30678b22df202310828055a0beb6ac29ee1ad3ce30ec82a30bad5ee89866040516104cd9190611655565b60405180910390a38260030160039054906101000a900460ff16801561050157508260030160049054906101000a900460ff165b801561055257508260030160019054906101000a900460ff16600281111561052c5761052b6112c2565b5b8360030160009054906101000a900460ff1660028111156105505761054f6112c2565b5b145b156105615761056085610e0e565b5b5050505050565b60015481565b600060026000848152602001908152602001600020905060006002811115610599576105986112c2565b5b8160030160029054906101000a900460ff1660028111156105bd576105bc6112c2565b5b146105fd576040517f08c379a00000000000000000000000000000000000000000000000000000000081526004016105f4906114f1565b60405180910390fd5b60006002811115610611576106106112c2565b5b826002811115610624576106236112c2565b5b03610664576040517f08c379a000000000000000000000000000000000000000000000000000000000815260040161065b9061155d565b60405180910390fd5b60008160000160009054906101000a900473ffffffffffffffffffffffffffffffffffffffff1673ffffffffffffffffffffffffffffffffffffffff163373ffffffffffffffffffffffffffffffffffffffff1614905060008260010160009054906101000a900473ffffffffffffffffffffffffffffffffffffffff1673ffffffffffffffffffffffffffffffffffffffff163373ffffffffffffffffffffffffffffffffffffffff16149050818061071b5750805b61075a576040517f08c379a0000000000000000000000000000000000000000000000000000000008152600401610751906115c9565b60405180910390fd5b81156107ae57838360030160006101000a81548160ff02191690836002811115610787576107866112c2565b5b021790555060018360030160036101000a81548160ff0219169083151502179055506107f8565b838360030160016101000a81548160ff021916908360028111156107d5576107d46112c2565b5b021790555060018360030160046101000a81548160ff0219169083151502179055505b3373ffffffffffffffffffffffffffffffffffffffff16857fce17230d8dc1d2c60cc102f61a8acbdd6c7f13561e4a8ddea0c9974bd359f3748660405161083f9190611655565b60405180910390a38260030160039054906101000a900460ff16801561087357508260030160049054906101000a900460ff165b80156108c457508260030160019054906101000a900460ff16600281111561089e5761089d6112c2565b5b8360030160009054906101000a900460ff1660028111156108c2576108c16112c2565b5b145b156108d3576108d285610e0e565b5b5050505050565b60008073ffffffffffffffffffffffffffffffffffffffff168373ffffffffffffffffffffffffffffffffffffffff160361094a576040517f08c379a0000000000000000000000000000000000000000000000000000000008152600401610941906116bc565b60405180910390fd5b3373ffffffffffffffffffffffffffffffffffffffff168373ffffffffffffffffffffffffffffffffffffffff16036109b8576040517f08c379a00000000000000000000000000000000000000000000000000000000081526004016109af90611728565b60405180910390fd5b600082116109fb576040517f08c379a00000000000000000000000000000000000000000000000000000000081526004016109f290611794565b60405180910390fd5b60008054906101000a900473ffffffffffffffffffffffffffffffffffffffff1673ffffffffffffffffffffffffffffffffffffffff166323b872dd3330856040518463ffffffff1660e01b8152600401610a58939291906117b4565b6020604051808303816000875af1158015610a77573d6000803e3d6000fd5b505050506040513d601f19601f82011682018060405250810190610a9b9190611817565b610ada576040517f08c379a0000000000000000000000000000000000000000000000000000000008152600401610ad190611890565b60405180910390fd5b600060016000815480929190610aef906118df565b9190505590506000600260008381526020019081526020016000209050338160000160006101000a81548173ffffffffffffffffffffffffffffffffffffffff021916908373ffffffffffffffffffffffffffffffffffffffff160217905550848160010160006101000a81548173ffffffffffffffffffffffffffffffffffffffff021916908373ffffffffffffffffffffffffffffffffffffffff16021790555083816002018190555060008160030160026101000a81548160ff02191690836002811115610bc357610bc26112c2565b5b02179055508473ffffffffffffffffffffffffffffffffffffffff163373ffffffffffffffffffffffffffffffffffffffff16837ff9e17940e547201709f9aaacdec8ab3566601c60d8f5affb54f74b79b0b50b1387604051610c2691906111cd565b60405180910390a4819250505092915050565b60026020528060005260406000206000915090508060000160009054906101000a900473ffffffffffffffffffffffffffffffffffffffff16908060010160009054906101000a900473ffffffffffffffffffffffffffffffffffffffff16908060020154908060030160009054906101000a900460ff16908060030160019054906101000a900460ff16908060030160029054906101000a900460ff16908060030160039054906101000a900460ff16908060030160049054906101000a900460ff16905088565b60008054906101000a900473ffffffffffffffffffffffffffffffffffffffff1681565b6000806000806000806000806000600260008b815260200190815260200160002090508060000160009054906101000a900473ffffffffffffffffffffffffffffffffffffffff168160010160009054906101000a900473ffffffffffffffffffffffffffffffffffffffff1682600201548360030160009054906101000a900460ff168460030160019054906101000a900460ff168560030160029054906101000a900460ff168660030160039054906101000a900460ff168760030160049054906101000a900460ff169850985098509850985098509850985050919395975091939597565b600060026000838152602001908152602001600020905060006002811115610e3957610e386112c2565b5b8160030160029054906101000a900460ff166002811115610e5d57610e5c6112c2565b5b14610e9d576040517f08c379a0000000000000000000000000000000000000000000000000000000008152600401610e9490611973565b60405180910390fd5b8060030160019054906101000a900460ff166002811115610ec157610ec06112c2565b5b8160030160009054906101000a900460ff166002811115610ee557610ee46112c2565b5b14610f25576040517f08c379a0000000000000000000000000000000000000000000000000000000008152600401610f1c906119df565b60405180910390fd5b600060016002811115610f3b57610f3a6112c2565b5b8260030160009054906101000a900460ff166002811115610f5f57610f5e6112c2565b5b03610f90578160000160009054906101000a900473ffffffffffffffffffffffffffffffffffffffff169050610fb8565b8160010160009054906101000a900473ffffffffffffffffffffffffffffffffffffffff1690505b60018260030160026101000a81548160ff02191690836002811115610fe057610fdf6112c2565b5b021790555060008054906101000a900473ffffffffffffffffffffffffffffffffffffffff1673ffffffffffffffffffffffffffffffffffffffff1663a9059cbb8284600201546040518363ffffffff1660e01b81526004016110449291906119ff565b6020604051808303816000875af1158015611063573d6000803e3d6000fd5b505050506040513d601f19601f820116820180604052508101906110879190611817565b6110c6576040517f08c379a00000000000000000000000000000000000000000000000000000000081526004016110bd90611890565b60405180910390fd5b8073ffffffffffffffffffffffffffffffffffffffff16837f9b32d7714729bdcd899b9c5460b1ec55a813e10e7a51271f146949e4e19f7b99846002015460405161111191906111cd565b60405180910390a3505050565b600080fd5b6000819050919050565b61113681611123565b811461114157600080fd5b50565b6000813590506111538161112d565b92915050565b6003811061116657600080fd5b50565b60008135905061117881611159565b92915050565b600080604083850312156111955761119461111e565b5b60006111a385828601611144565b92505060206111b485828601611169565b9150509250929050565b6111c781611123565b82525050565b60006020820190506111e260008301846111be565b92915050565b600073ffffffffffffffffffffffffffffffffffffffff82169050919050565b6000611213826111e8565b9050919050565b61122381611208565b811461122e57600080fd5b50565b6000813590506112408161121a565b92915050565b6000806040838503121561125d5761125c61111e565b5b600061126b85828601611231565b925050602061127c85828601611144565b9150509250929050565b60006020828403121561129c5761129b61111e565b5b60006112aa84828501611144565b91505092915050565b6112bc81611208565b82525050565b7f4e487b7100000000000000000000000000000000000000000000000000000000600052602160045260246000fd5b60038110611302576113016112c2565b5b50565b6000819050611313826112f1565b919050565b600061132382611305565b9050919050565b61133381611318565b82525050565b6003811061134a576113496112c2565b5b50565b600081905061135b82611339565b919050565b600061136b8261134d565b9050919050565b61137b81611360565b82525050565b60008115159050919050565b61139681611381565b82525050565b6000610100820190506113b2600083018b6112b3565b6113bf602083018a6112b3565b6113cc60408301896111be565b6113d9606083018861132a565b6113e6608083018761132a565b6113f360a0830186611372565b61140060c083018561138d565b61140d60e083018461138d565b9998505050505050505050565b6000819050919050565b600061143f61143a611435846111e8565b61141a565b6111e8565b9050919050565b600061145182611424565b9050919050565b600061146382611446565b9050919050565b61147381611458565b82525050565b600060208201905061148e600083018461146a565b92915050565b600082825260208201905092915050565b7f4f72646572206e6f74206f70656e000000000000000000000000000000000000600082015250565b60006114db600e83611494565b91506114e6826114a5565b602082019050919050565b6000602082019050818103600083015261150a816114ce565b9050919050565b7f496e76616c69642063686f696365000000000000000000000000000000000000600082015250565b6000611547600e83611494565b915061155282611511565b602082019050919050565b600060208201905081810360008301526115768161153a565b9050919050565b7f4e6f7420617574686f72697a6564000000000000000000000000000000000000600082015250565b60006115b3600e83611494565b91506115be8261157d565b602082019050919050565b600060208201905081810360008301526115e2816115a6565b9050919050565b7f4e6f74207369676e656420796574000000000000000000000000000000000000600082015250565b600061161f600e83611494565b915061162a826115e9565b602082019050919050565b6000602082019050818103600083015261164e81611612565b9050919050565b600060208201905061166a600083018461132a565b92915050565b7f496e76616c696420636f756e7465727061727479206164647265737300000000600082015250565b60006116a6601c83611494565b91506116b182611670565b602082019050919050565b600060208201905081810360008301526116d581611699565b9050919050565b7f43616e6e6f74207472616465207769746820796f757273656c66000000000000600082015250565b6000611712601a83611494565b915061171d826116dc565b602082019050919050565b6000602082019050818103600083015261174181611705565b9050919050565b7f416d6f756e74206d7573742062652067726561746572207468616e2030000000600082015250565b600061177e601d83611494565b915061178982611748565b602082019050919050565b600060208201905081810360008301526117ad81611771565b9050919050565b60006060820190506117c960008301866112b3565b6117d660208301856112b3565b6117e360408301846111be565b949350505050565b6117f481611381565b81146117ff57600080fd5b50565b600081519050611811816117eb565b92915050565b60006020828403121561182d5761182c61111e565b5b600061183b84828501611802565b91505092915050565b7f55534454207472616e73666572206661696c6564000000000000000000000000600082015250565b600061187a601483611494565b915061188582611844565b602082019050919050565b600060208201905081810360008301526118a98161186d565b9050919050565b7f4e487b7100000000000000000000000000000000000000000000000000000000600052601160045260246000fd5b60006118ea82611123565b91507fffffffffffffffffffffffffffffffffffffffffffffffffffffffffffffffff820361191c5761191b6118b0565b5b600182019050919050565b7f4f7264657220616c72656164792070726f636573736564000000000000000000600082015250565b600061195d601783611494565b915061196882611927565b602082019050919050565b6000602082019050818103600083015261198c81611950565b9050919050565b7f43686f6963657320646f206e6f74206d61746368000000000000000000000000600082015250565b60006119c9601483611494565b91506119d482611993565b602082019050919050565b600060208201905081810360008301526119f8816119bc565b9050919050565b6000604082019050611a1460008301856112b3565b611a2160208301846111be565b939250505056fea26469706673582212206f63b71d7e45b0a595e9be9d1dfbbe82eb80a316fe07a2e3092cfd09aa8dbb2764736f6c63430008140033",
  "linkReferences": {},
  "deployedLinkReferences": {}
}